{
  "contractName": "Marketplace",
  "abi": [
    {
      "inputs": [],
      "stateMutability": "nonpayable",
      "type": "constructor"
    },
    {
      "anonymous": false,
      "inputs": [
        {
          "indexed": true,
          "internalType": "address",
          "name": "owner",
          "type": "address"
        },
        {
          "indexed": true,
          "internalType": "address",
          "name": "approved",
          "type": "address"
        },
        {
          "indexed": true,
          "internalType": "uint256",
          "name": "tokenId",
          "type": "uint256"
        }
      ],
      "name": "Approval",
      "type": "event"
    },
    {
      "anonymous": false,
      "inputs": [
        {
          "indexed": true,
          "internalType": "address",
          "name": "owner",
          "type": "address"
        },
        {
          "indexed": true,
          "internalType": "address",
          "name": "operator",
          "type": "address"
        },
        {
          "indexed": false,
          "internalType": "bool",
          "name": "approved",
          "type": "bool"
        }
      ],
      "name": "ApprovalForAll",
      "type": "event"
    },
    {
      "anonymous": false,
      "inputs": [
        {
          "indexed": false,
          "internalType": "address",
          "name": "nftContract",
          "type": "address"
        },
        {
          "indexed": false,
          "internalType": "uint256",
          "name": "tokenId",
          "type": "uint256"
        },
        {
          "indexed": false,
          "internalType": "address",
          "name": "seller",
          "type": "address"
        },
        {
          "indexed": false,
          "internalType": "address",
          "name": "owner",
          "type": "address"
        },
        {
          "indexed": false,
          "internalType": "uint256",
          "name": "price",
          "type": "uint256"
        }
      ],
      "name": "NFTListed",
      "type": "event"
    },
    {
      "anonymous": false,
      "inputs": [
        {
          "indexed": false,
          "internalType": "uint256",
          "name": "",
          "type": "uint256"
        }
      ],
      "name": "NFTMinted",
      "type": "event"
    },
    {
      "anonymous": false,
      "inputs": [
        {
          "indexed": false,
          "internalType": "address",
          "name": "nftContract",
          "type": "address"
        },
        {
          "indexed": false,
          "internalType": "uint256",
          "name": "tokenId",
          "type": "uint256"
        },
        {
          "indexed": false,
          "internalType": "address",
          "name": "seller",
          "type": "address"
        },
        {
          "indexed": false,
          "internalType": "address",
          "name": "owner",
          "type": "address"
        },
        {
          "indexed": false,
          "internalType": "uint256",
          "name": "price",
          "type": "uint256"
        }
      ],
      "name": "NFTSold",
      "type": "event"
    },
    {
      "anonymous": false,
      "inputs": [
        {
          "indexed": true,
          "internalType": "address",
          "name": "from",
          "type": "address"
        },
        {
          "indexed": true,
          "internalType": "address",
          "name": "to",
          "type": "address"
        },
        {
          "indexed": true,
          "internalType": "uint256",
          "name": "tokenId",
          "type": "uint256"
        }
      ],
      "name": "Transfer",
      "type": "event"
    },
    {
      "inputs": [],
      "name": "LISTING_FEE",
      "outputs": [
        {
          "internalType": "uint256",
          "name": "",
          "type": "uint256"
        }
      ],
      "stateMutability": "view",
      "type": "function",
      "constant": true
    },
    {
      "inputs": [
        {
          "internalType": "address",
          "name": "to",
          "type": "address"
        },
        {
          "internalType": "uint256",
          "name": "tokenId",
          "type": "uint256"
        }
      ],
      "name": "approve",
      "outputs": [],
      "stateMutability": "nonpayable",
      "type": "function"
    },
    {
      "inputs": [
        {
          "internalType": "address",
          "name": "owner",
          "type": "address"
        }
      ],
      "name": "balanceOf",
      "outputs": [
        {
          "internalType": "uint256",
          "name": "",
          "type": "uint256"
        }
      ],
      "stateMutability": "view",
      "type": "function",
      "constant": true
    },
    {
      "inputs": [
        {
          "internalType": "uint256",
          "name": "tokenId",
          "type": "uint256"
        }
      ],
      "name": "getApproved",
      "outputs": [
        {
          "internalType": "address",
          "name": "",
          "type": "address"
        }
      ],
      "stateMutability": "view",
      "type": "function",
      "constant": true
    },
    {
      "inputs": [
        {
          "internalType": "address",
          "name": "owner",
          "type": "address"
        },
        {
          "internalType": "address",
          "name": "operator",
          "type": "address"
        }
      ],
      "name": "isApprovedForAll",
      "outputs": [
        {
          "internalType": "bool",
          "name": "",
          "type": "bool"
        }
      ],
      "stateMutability": "view",
      "type": "function",
      "constant": true
    },
    {
      "inputs": [],
      "name": "name",
      "outputs": [
        {
          "internalType": "string",
          "name": "",
          "type": "string"
        }
      ],
      "stateMutability": "view",
      "type": "function",
      "constant": true
    },
    {
      "inputs": [
        {
          "internalType": "uint256",
          "name": "tokenId",
          "type": "uint256"
        }
      ],
      "name": "ownerOf",
      "outputs": [
        {
          "internalType": "address",
          "name": "",
          "type": "address"
        }
      ],
      "stateMutability": "view",
      "type": "function",
      "constant": true
    },
    {
      "inputs": [
        {
          "internalType": "address",
          "name": "from",
          "type": "address"
        },
        {
          "internalType": "address",
          "name": "to",
          "type": "address"
        },
        {
          "internalType": "uint256",
          "name": "tokenId",
          "type": "uint256"
        }
      ],
      "name": "safeTransferFrom",
      "outputs": [],
      "stateMutability": "nonpayable",
      "type": "function"
    },
    {
      "inputs": [
        {
          "internalType": "address",
          "name": "from",
          "type": "address"
        },
        {
          "internalType": "address",
          "name": "to",
          "type": "address"
        },
        {
          "internalType": "uint256",
          "name": "tokenId",
          "type": "uint256"
        },
        {
          "internalType": "bytes",
          "name": "data",
          "type": "bytes"
        }
      ],
      "name": "safeTransferFrom",
      "outputs": [],
      "stateMutability": "nonpayable",
      "type": "function"
    },
    {
      "inputs": [
        {
          "internalType": "address",
          "name": "operator",
          "type": "address"
        },
        {
          "internalType": "bool",
          "name": "approved",
          "type": "bool"
        }
      ],
      "name": "setApprovalForAll",
      "outputs": [],
      "stateMutability": "nonpayable",
      "type": "function"
    },
    {
      "inputs": [
        {
          "internalType": "bytes4",
          "name": "interfaceId",
          "type": "bytes4"
        }
      ],
      "name": "supportsInterface",
      "outputs": [
        {
          "internalType": "bool",
          "name": "",
          "type": "bool"
        }
      ],
      "stateMutability": "view",
      "type": "function",
      "constant": true
    },
    {
      "inputs": [],
      "name": "symbol",
      "outputs": [
        {
          "internalType": "string",
          "name": "",
          "type": "string"
        }
      ],
      "stateMutability": "view",
      "type": "function",
      "constant": true
    },
    {
      "inputs": [
        {
          "internalType": "uint256",
          "name": "tokenId",
          "type": "uint256"
        }
      ],
      "name": "tokenURI",
      "outputs": [
        {
          "internalType": "string",
          "name": "",
          "type": "string"
        }
      ],
      "stateMutability": "view",
      "type": "function",
      "constant": true
    },
    {
      "inputs": [
        {
          "internalType": "address",
          "name": "from",
          "type": "address"
        },
        {
          "internalType": "address",
          "name": "to",
          "type": "address"
        },
        {
          "internalType": "uint256",
          "name": "tokenId",
          "type": "uint256"
        }
      ],
      "name": "transferFrom",
      "outputs": [],
      "stateMutability": "nonpayable",
      "type": "function"
    },
    {
      "inputs": [
        {
          "internalType": "string",
          "name": "_tokenURI",
          "type": "string"
        },
        {
          "internalType": "uint256",
          "name": "_price",
          "type": "uint256"
        }
      ],
      "name": "listNft",
      "outputs": [],
      "stateMutability": "payable",
      "type": "function",
      "payable": true
    },
    {
      "inputs": [
        {
          "internalType": "uint256",
          "name": "_tokenId",
          "type": "uint256"
        }
      ],
      "name": "buyNft",
      "outputs": [],
      "stateMutability": "payable",
      "type": "function",
      "payable": true
    },
    {
      "inputs": [
        {
          "internalType": "uint256",
          "name": "_tokenId",
          "type": "uint256"
        },
        {
          "internalType": "uint256",
          "name": "_price",
          "type": "uint256"
        }
      ],
      "name": "resellNft",
      "outputs": [],
      "stateMutability": "payable",
      "type": "function",
      "payable": true
    },
    {
      "inputs": [],
      "name": "getListingFee",
      "outputs": [
        {
          "internalType": "uint256",
          "name": "",
          "type": "uint256"
        }
      ],
      "stateMutability": "view",
      "type": "function",
      "constant": true
    },
    {
      "inputs": [],
      "name": "getListedNfts",
      "outputs": [
        {
          "components": [
            {
              "internalType": "address",
              "name": "nftContract",
              "type": "address"
            },
            {
              "internalType": "uint256",
              "name": "tokenId",
              "type": "uint256"
            },
            {
              "internalType": "address payable",
              "name": "seller",
              "type": "address"
            },
            {
              "internalType": "address payable",
              "name": "owner",
              "type": "address"
            },
            {
              "internalType": "uint256",
              "name": "price",
              "type": "uint256"
            },
            {
              "internalType": "bool",
              "name": "listed",
              "type": "bool"
            }
          ],
          "internalType": "struct Marketplace.NFT[]",
          "name": "",
          "type": "tuple[]"
        }
      ],
      "stateMutability": "view",
      "type": "function",
      "constant": true
    },
    {
      "inputs": [],
      "name": "getMyNfts",
      "outputs": [
        {
          "components": [
            {
              "internalType": "address",
              "name": "nftContract",
              "type": "address"
            },
            {
              "internalType": "uint256",
              "name": "tokenId",
              "type": "uint256"
            },
            {
              "internalType": "address payable",
              "name": "seller",
              "type": "address"
            },
            {
              "internalType": "address payable",
              "name": "owner",
              "type": "address"
            },
            {
              "internalType": "uint256",
              "name": "price",
              "type": "uint256"
            },
            {
              "internalType": "bool",
              "name": "listed",
              "type": "bool"
            }
          ],
          "internalType": "struct Marketplace.NFT[]",
          "name": "",
          "type": "tuple[]"
        }
      ],
      "stateMutability": "view",
      "type": "function",
      "constant": true
    },
    {
      "inputs": [],
      "name": "getMyListedNfts",
      "outputs": [
        {
          "components": [
            {
              "internalType": "address",
              "name": "nftContract",
              "type": "address"
            },
            {
              "internalType": "uint256",
              "name": "tokenId",
              "type": "uint256"
            },
            {
              "internalType": "address payable",
              "name": "seller",
              "type": "address"
            },
            {
              "internalType": "address payable",
              "name": "owner",
              "type": "address"
            },
            {
              "internalType": "uint256",
              "name": "price",
              "type": "uint256"
            },
            {
              "internalType": "bool",
              "name": "listed",
              "type": "bool"
            }
          ],
          "internalType": "struct Marketplace.NFT[]",
          "name": "",
          "type": "tuple[]"
        }
      ],
      "stateMutability": "view",
      "type": "function",
      "constant": true
    }
  ],
  "bytecode": "0x6080604052655af3107a4000600b553480156200001b57600080fd5b506040518060400160405280601381526020017f486578204e4654204d61726b6574706c616365000000000000000000000000008152506040518060400160405280600381526020017f484e4d000000000000000000000000000000000000000000000000000000000081525060016000819055508160019080519060200190620000a89291906200010b565b508060029080519060200190620000c19291906200010b565b50505033600c60006101000a81548173ffffffffffffffffffffffffffffffffffffffff021916908373ffffffffffffffffffffffffffffffffffffffff1602179055506200021f565b8280546200011990620001ea565b90600052602060002090601f0160209004810192826200013d576000855562000189565b82601f106200015857805160ff191683800117855562000189565b8280016001018555821562000189579182015b82811115620001885782518255916020019190600101906200016b565b5b5090506200019891906200019c565b5090565b5b80821115620001b75760008160009055506001016200019d565b5090565b7f4e487b7100000000000000000000000000000000000000000000000000000000600052602260045260246000fd5b600060028204905060018216806200020357607f821691505b602082108103620002195762000218620001bb565b5b50919050565b6142fc806200022f6000396000f3fe60806040526004361061012a5760003560e01c806342842e0e116100ab57806395d89b411161006f57806395d89b41146103c9578063a22cb465146103f4578063b88d4fde1461041d578063b8fe6abe14610446578063c87b56dd14610471578063e985e9c5146104ae5761012a565b806342842e0e146102df5780636352211e146103085780636e0aa9c41461034557806370a08231146103615780638d6cb3fb1461039e5761012a565b80631f4cc4db116100f25780631f4cc4db1461022857806320d748e71461025357806323b872dd1461026f578063243adbdd146102985780632b86ae38146102b45761012a565b806301ffc9a71461012f578063047b07bf1461016c57806306fdde0314610197578063081812fc146101c2578063095ea7b3146101ff575b600080fd5b34801561013b57600080fd5b5061015660048036038101906101519190612d3f565b6104eb565b6040516101639190612d87565b60405180910390f35b34801561017857600080fd5b506101816105cd565b60405161018e9190612f56565b60405180910390f35b3480156101a357600080fd5b506101ac610900565b6040516101b99190613011565b60405180910390f35b3480156101ce57600080fd5b506101e960048036038101906101e4919061305f565b610992565b6040516101f6919061309b565b60405180910390f35b34801561020b57600080fd5b50610226600480360381019061022191906130e2565b6109d8565b005b34801561023457600080fd5b5061023d610aef565b60405161024a9190612f56565b60405180910390f35b61026d60048036038101906102689190613122565b610e94565b005b34801561027b57600080fd5b5061029660048036038101906102919190613162565b6110f0565b005b6102b260048036038101906102ad919061305f565b611150565b005b3480156102c057600080fd5b506102c9611427565b6040516102d691906131c4565b60405180910390f35b3480156102eb57600080fd5b5061030660048036038101906103019190613162565b61142d565b005b34801561031457600080fd5b5061032f600480360381019061032a919061305f565b61144d565b60405161033c919061309b565b60405180910390f35b61035f600480360381019061035a9190613314565b6114fe565b005b34801561036d57600080fd5b5061038860048036038101906103839190613370565b61185f565b60405161039591906131c4565b60405180910390f35b3480156103aa57600080fd5b506103b3611916565b6040516103c09190612f56565b60405180910390f35b3480156103d557600080fd5b506103de611b7e565b6040516103eb9190613011565b60405180910390f35b34801561040057600080fd5b5061041b600480360381019061041691906133c9565b611c10565b005b34801561042957600080fd5b50610444600480360381019061043f91906134aa565b611c26565b005b34801561045257600080fd5b5061045b611c88565b60405161046891906131c4565b60405180910390f35b34801561047d57600080fd5b506104986004803603810190610493919061305f565b611c92565b6040516104a59190613011565b60405180910390f35b3480156104ba57600080fd5b506104d560048036038101906104d0919061352d565b611da4565b6040516104e29190612d87565b60405180910390f35b60007f80ac58cd000000000000000000000000000000000000000000000000000000007bffffffffffffffffffffffffffffffffffffffffffffffffffffffff1916827bffffffffffffffffffffffffffffffffffffffffffffffffffffffff191614806105b657507f5b5e139f000000000000000000000000000000000000000000000000000000007bffffffffffffffffffffffffffffffffffffffffffffffffffffffff1916827bffffffffffffffffffffffffffffffffffffffffffffffffffffffff1916145b806105c657506105c582611e38565b5b9050919050565b606060006105db6009611ea2565b90506000805b82811015610680573373ffffffffffffffffffffffffffffffffffffffff16600d6000600184610611919061359c565b815260200190815260200160002060030160009054906101000a900473ffffffffffffffffffffffffffffffffffffffff1673ffffffffffffffffffffffffffffffffffffffff160361066d578180610669906135f2565b9250505b8080610678906135f2565b9150506105e1565b5060008167ffffffffffffffff81111561069d5761069c6131e9565b5b6040519080825280602002602001820160405280156106d657816020015b6106c3612bb6565b8152602001906001900390816106bb5790505b5090506000805b848110156108f5573373ffffffffffffffffffffffffffffffffffffffff16600d600060018461070d919061359c565b815260200190815260200160002060030160009054906101000a900473ffffffffffffffffffffffffffffffffffffffff1673ffffffffffffffffffffffffffffffffffffffff16036108e257600d600060018361076b919061359c565b81526020019081526020016000206040518060c00160405290816000820160009054906101000a900473ffffffffffffffffffffffffffffffffffffffff1673ffffffffffffffffffffffffffffffffffffffff1673ffffffffffffffffffffffffffffffffffffffff168152602001600182015481526020016002820160009054906101000a900473ffffffffffffffffffffffffffffffffffffffff1673ffffffffffffffffffffffffffffffffffffffff1673ffffffffffffffffffffffffffffffffffffffff1681526020016003820160009054906101000a900473ffffffffffffffffffffffffffffffffffffffff1673ffffffffffffffffffffffffffffffffffffffff1673ffffffffffffffffffffffffffffffffffffffff168152602001600482015481526020016005820160009054906101000a900460ff1615151515815250508383815181106108c8576108c761363a565b5b602002602001018190525081806108de906135f2565b9250505b80806108ed906135f2565b9150506106dd565b508194505050505090565b60606001805461090f90613698565b80601f016020809104026020016040519081016040528092919081815260200182805461093b90613698565b80156109885780601f1061095d57610100808354040283529160200191610988565b820191906000526020600020905b81548152906001019060200180831161096b57829003601f168201915b5050505050905090565b600061099d82611eb0565b6005600083815260200190815260200160002060009054906101000a900473ffffffffffffffffffffffffffffffffffffffff169050919050565b60006109e38261144d565b90508073ffffffffffffffffffffffffffffffffffffffff168373ffffffffffffffffffffffffffffffffffffffff1603610a53576040517f08c379a0000000000000000000000000000000000000000000000000000000008152600401610a4a9061373b565b60405180910390fd5b8073ffffffffffffffffffffffffffffffffffffffff16610a72611efb565b73ffffffffffffffffffffffffffffffffffffffff161480610aa15750610aa081610a9b611efb565b611da4565b5b610ae0576040517f08c379a0000000000000000000000000000000000000000000000000000000008152600401610ad7906137cd565b60405180910390fd5b610aea8383611f03565b505050565b60606000610afd6009611ea2565b90506000805b82811015610bdb573373ffffffffffffffffffffffffffffffffffffffff16600d6000600184610b33919061359c565b815260200190815260200160002060020160009054906101000a900473ffffffffffffffffffffffffffffffffffffffff1673ffffffffffffffffffffffffffffffffffffffff16148015610bb45750600d6000600183610b94919061359c565b815260200190815260200160002060050160009054906101000a900460ff165b15610bc8578180610bc4906135f2565b9250505b8080610bd3906135f2565b915050610b03565b5060008167ffffffffffffffff811115610bf857610bf76131e9565b5b604051908082528060200260200182016040528015610c3157816020015b610c1e612bb6565b815260200190600190039081610c165790505b5090506000805b84811015610e89573373ffffffffffffffffffffffffffffffffffffffff16600d6000600184610c68919061359c565b815260200190815260200160002060020160009054906101000a900473ffffffffffffffffffffffffffffffffffffffff1673ffffffffffffffffffffffffffffffffffffffff16148015610ce95750600d6000600183610cc9919061359c565b815260200190815260200160002060050160009054906101000a900460ff165b15610e7657600d6000600183610cff919061359c565b81526020019081526020016000206040518060c00160405290816000820160009054906101000a900473ffffffffffffffffffffffffffffffffffffffff1673ffffffffffffffffffffffffffffffffffffffff1673ffffffffffffffffffffffffffffffffffffffff168152602001600182015481526020016002820160009054906101000a900473ffffffffffffffffffffffffffffffffffffffff1673ffffffffffffffffffffffffffffffffffffffff1673ffffffffffffffffffffffffffffffffffffffff1681526020016003820160009054906101000a900473ffffffffffffffffffffffffffffffffffffffff1673ffffffffffffffffffffffffffffffffffffffff1673ffffffffffffffffffffffffffffffffffffffff168152602001600482015481526020016005820160009054906101000a900460ff161515151581525050838381518110610e5c57610e5b61363a565b5b60200260200101819052508180610e72906135f2565b9250505b8080610e81906135f2565b915050610c38565b508194505050505090565b600260005403610ed9576040517f08c379a0000000000000000000000000000000000000000000000000000000008152600401610ed090613839565b60405180910390fd5b600260008190555060008111610f24576040517f08c379a0000000000000000000000000000000000000000000000000000000008152600401610f1b906138a5565b60405180910390fd5b600b543414610f68576040517f08c379a0000000000000000000000000000000000000000000000000000000008152600401610f5f90613911565b60405180910390fd5b3073ffffffffffffffffffffffffffffffffffffffff166323b872dd3330856040518463ffffffff1660e01b8152600401610fa593929190613931565b600060405180830381600087803b158015610fbf57600080fd5b505af1158015610fd3573d6000803e3d6000fd5b505050506000600d60008481526020019081526020016000209050338160020160006101000a81548173ffffffffffffffffffffffffffffffffffffffff021916908373ffffffffffffffffffffffffffffffffffffffff160217905550308160030160006101000a81548173ffffffffffffffffffffffffffffffffffffffff021916908373ffffffffffffffffffffffffffffffffffffffff16021790555060018160050160006101000a81548160ff0219169083151502179055508181600401819055506110a46008611fbc565b7fa0c6c0d02d86fdacecbaa5fdf5894bab204e31a778250474108540733a9b8d1930843330866040516110db959493929190613968565b60405180910390a15060016000819055505050565b6111016110fb611efb565b82612018565b611140576040517f08c379a000000000000000000000000000000000000000000000000000000000815260040161113790613a2d565b60405180910390fd5b61114b8383836120ad565b505050565b600260005403611195576040517f08c379a000000000000000000000000000000000000000000000000000000000815260040161118c90613839565b60405180910390fd5b60026000819055506000600d6000838152602001908152602001600020905080600401543410156111fb576040517f08c379a00000000000000000000000000000000000000000000000000000000081526004016111f290613abf565b60405180910390fd5b60003390508160020160009054906101000a900473ffffffffffffffffffffffffffffffffffffffff1673ffffffffffffffffffffffffffffffffffffffff166108fc349081150290604051600060405180830381858888f1935050505015801561126a573d6000803e3d6000fd5b503073ffffffffffffffffffffffffffffffffffffffff166323b872dd308385600101546040518463ffffffff1660e01b81526004016112ac93929190613b3e565b600060405180830381600087803b1580156112c657600080fd5b505af11580156112da573d6000803e3d6000fd5b50505050600c60009054906101000a900473ffffffffffffffffffffffffffffffffffffffff1673ffffffffffffffffffffffffffffffffffffffff166108fc600b549081150290604051600060405180830381858888f19350505050158015611348573d6000803e3d6000fd5b50808260030160006101000a81548173ffffffffffffffffffffffffffffffffffffffff021916908373ffffffffffffffffffffffffffffffffffffffff16021790555060008260050160006101000a81548160ff0219169083151502179055506113b36008612313565b7f16f1dbd97e6bf646d429ed186cce832f1f7fd9907814293b83181e9970ab7bd23083600101548460020160009054906101000a900473ffffffffffffffffffffffffffffffffffffffff168434604051611412959493929190613b75565b60405180910390a15050600160008190555050565b600b5481565b61144883838360405180602001604052806000815250611c26565b505050565b6000806003600084815260200190815260200160002060009054906101000a900473ffffffffffffffffffffffffffffffffffffffff169050600073ffffffffffffffffffffffffffffffffffffffff168173ffffffffffffffffffffffffffffffffffffffff16036114f5576040517f08c379a00000000000000000000000000000000000000000000000000000000081526004016114ec90613c14565b60405180910390fd5b80915050919050565b600260005403611543576040517f08c379a000000000000000000000000000000000000000000000000000000000815260040161153a90613839565b60405180910390fd5b60026000819055506000811161158e576040517f08c379a0000000000000000000000000000000000000000000000000000000008152600401611585906138a5565b60405180910390fd5b600b5434146115d2576040517f08c379a00000000000000000000000000000000000000000000000000000000081526004016115c990613911565b60405180910390fd5b6115dc600a612313565b60006115e8600a611ea2565b90506115f43382612329565b6115fe8184612347565b611609306001611c10565b3073ffffffffffffffffffffffffffffffffffffffff166323b872dd3330846040518463ffffffff1660e01b815260040161164693929190613931565b600060405180830381600087803b15801561166057600080fd5b505af1158015611674573d6000803e3d6000fd5b505050506116826009612313565b6040518060c001604052803073ffffffffffffffffffffffffffffffffffffffff1681526020018281526020013373ffffffffffffffffffffffffffffffffffffffff1681526020013073ffffffffffffffffffffffffffffffffffffffff16815260200183815260200160011515815250600d600083815260200190815260200160002060008201518160000160006101000a81548173ffffffffffffffffffffffffffffffffffffffff021916908373ffffffffffffffffffffffffffffffffffffffff1602179055506020820151816001015560408201518160020160006101000a81548173ffffffffffffffffffffffffffffffffffffffff021916908373ffffffffffffffffffffffffffffffffffffffff16021790555060608201518160030160006101000a81548173ffffffffffffffffffffffffffffffffffffffff021916908373ffffffffffffffffffffffffffffffffffffffff1602179055506080820151816004015560a08201518160050160006101000a81548160ff0219169083151502179055509050507fa0c6c0d02d86fdacecbaa5fdf5894bab204e31a778250474108540733a9b8d19308233308660405161184a959493929190613968565b60405180910390a15060016000819055505050565b60008073ffffffffffffffffffffffffffffffffffffffff168273ffffffffffffffffffffffffffffffffffffffff16036118cf576040517f08c379a00000000000000000000000000000000000000000000000000000000081526004016118c690613ca6565b60405180910390fd5b600460008373ffffffffffffffffffffffffffffffffffffffff1673ffffffffffffffffffffffffffffffffffffffff168152602001908152602001600020549050919050565b606060006119246009611ea2565b905060006119326008611ea2565b8261193d9190613cc6565b905060008167ffffffffffffffff81111561195b5761195a6131e9565b5b60405190808252806020026020018201604052801561199457816020015b611981612bb6565b8152602001906001900390816119795790505b5090506000805b84811015611b7357600d60006001836119b4919061359c565b815260200190815260200160002060050160009054906101000a900460ff1615611b6057600d60006001836119e9919061359c565b81526020019081526020016000206040518060c00160405290816000820160009054906101000a900473ffffffffffffffffffffffffffffffffffffffff1673ffffffffffffffffffffffffffffffffffffffff1673ffffffffffffffffffffffffffffffffffffffff168152602001600182015481526020016002820160009054906101000a900473ffffffffffffffffffffffffffffffffffffffff1673ffffffffffffffffffffffffffffffffffffffff1673ffffffffffffffffffffffffffffffffffffffff1681526020016003820160009054906101000a900473ffffffffffffffffffffffffffffffffffffffff1673ffffffffffffffffffffffffffffffffffffffff1673ffffffffffffffffffffffffffffffffffffffff168152602001600482015481526020016005820160009054906101000a900460ff161515151581525050838381518110611b4657611b4561363a565b5b60200260200101819052508180611b5c906135f2565b9250505b8080611b6b906135f2565b91505061199b565b508194505050505090565b606060028054611b8d90613698565b80601f0160208091040260200160405190810160405280929190818152602001828054611bb990613698565b8015611c065780601f10611bdb57610100808354040283529160200191611c06565b820191906000526020600020905b815481529060010190602001808311611be957829003601f168201915b5050505050905090565b611c22611c1b611efb565b83836123bb565b5050565b611c37611c31611efb565b83612018565b611c76576040517f08c379a0000000000000000000000000000000000000000000000000000000008152600401611c6d90613a2d565b60405180910390fd5b611c8284848484612527565b50505050565b6000600b54905090565b6060611c9d82611eb0565b6000600760008481526020019081526020016000208054611cbd90613698565b80601f0160208091040260200160405190810160405280929190818152602001828054611ce990613698565b8015611d365780601f10611d0b57610100808354040283529160200191611d36565b820191906000526020600020905b815481529060010190602001808311611d1957829003601f168201915b505050505090506000611d47612583565b90506000815103611d5c578192505050611d9f565b600082511115611d91578082604051602001611d79929190613d36565b60405160208183030381529060405292505050611d9f565b611d9a8461259a565b925050505b919050565b6000600660008473ffffffffffffffffffffffffffffffffffffffff1673ffffffffffffffffffffffffffffffffffffffff16815260200190815260200160002060008373ffffffffffffffffffffffffffffffffffffffff1673ffffffffffffffffffffffffffffffffffffffff16815260200190815260200160002060009054906101000a900460ff16905092915050565b60007f01ffc9a7000000000000000000000000000000000000000000000000000000007bffffffffffffffffffffffffffffffffffffffffffffffffffffffff1916827bffffffffffffffffffffffffffffffffffffffffffffffffffffffff1916149050919050565b600081600001549050919050565b611eb981612602565b611ef8576040517f08c379a0000000000000000000000000000000000000000000000000000000008152600401611eef90613c14565b60405180910390fd5b50565b600033905090565b816005600083815260200190815260200160002060006101000a81548173ffffffffffffffffffffffffffffffffffffffff021916908373ffffffffffffffffffffffffffffffffffffffff160217905550808273ffffffffffffffffffffffffffffffffffffffff16611f768361144d565b73ffffffffffffffffffffffffffffffffffffffff167f8c5be1e5ebec7d5bd14f71427d1e84f3dd0314c0f7b2291e5b200ac8c7c3b92560405160405180910390a45050565b60008160000154905060008111612008576040517f08c379a0000000000000000000000000000000000000000000000000000000008152600401611fff90613da6565b60405180910390fd5b6001810382600001819055505050565b6000806120248361144d565b90508073ffffffffffffffffffffffffffffffffffffffff168473ffffffffffffffffffffffffffffffffffffffff16148061206657506120658185611da4565b5b806120a457508373ffffffffffffffffffffffffffffffffffffffff1661208c84610992565b73ffffffffffffffffffffffffffffffffffffffff16145b91505092915050565b8273ffffffffffffffffffffffffffffffffffffffff166120cd8261144d565b73ffffffffffffffffffffffffffffffffffffffff1614612123576040517f08c379a000000000000000000000000000000000000000000000000000000000815260040161211a90613e38565b60405180910390fd5b600073ffffffffffffffffffffffffffffffffffffffff168273ffffffffffffffffffffffffffffffffffffffff1603612192576040517f08c379a000000000000000000000000000000000000000000000000000000000815260040161218990613eca565b60405180910390fd5b61219d83838361266e565b6121a8600082611f03565b6001600460008573ffffffffffffffffffffffffffffffffffffffff1673ffffffffffffffffffffffffffffffffffffffff16815260200190815260200160002060008282546121f89190613cc6565b925050819055506001600460008473ffffffffffffffffffffffffffffffffffffffff1673ffffffffffffffffffffffffffffffffffffffff168152602001908152602001600020600082825461224f919061359c565b92505081905550816003600083815260200190815260200160002060006101000a81548173ffffffffffffffffffffffffffffffffffffffff021916908373ffffffffffffffffffffffffffffffffffffffff160217905550808273ffffffffffffffffffffffffffffffffffffffff168473ffffffffffffffffffffffffffffffffffffffff167fddf252ad1be2c89b69c2b068fc378daa952ba7f163c4a11628f55a4df523b3ef60405160405180910390a461230e838383612673565b505050565b6001816000016000828254019250508190555050565b612343828260405180602001604052806000815250612678565b5050565b61235082612602565b61238f576040517f08c379a000000000000000000000000000000000000000000000000000000000815260040161238690613f5c565b60405180910390fd5b806007600084815260200190815260200160002090805190602001906123b6929190612c30565b505050565b8173ffffffffffffffffffffffffffffffffffffffff168373ffffffffffffffffffffffffffffffffffffffff1603612429576040517f08c379a000000000000000000000000000000000000000000000000000000000815260040161242090613fc8565b60405180910390fd5b80600660008573ffffffffffffffffffffffffffffffffffffffff1673ffffffffffffffffffffffffffffffffffffffff16815260200190815260200160002060008473ffffffffffffffffffffffffffffffffffffffff1673ffffffffffffffffffffffffffffffffffffffff16815260200190815260200160002060006101000a81548160ff0219169083151502179055508173ffffffffffffffffffffffffffffffffffffffff168373ffffffffffffffffffffffffffffffffffffffff167f17307eab39ab6107e8899845ad3d59bd9653f200f220920489ca2b5937696c318360405161251a9190612d87565b60405180910390a3505050565b6125328484846120ad565b61253e848484846126d3565b61257d576040517f08c379a00000000000000000000000000000000000000000000000000000000081526004016125749061405a565b60405180910390fd5b50505050565b606060405180602001604052806000815250905090565b60606125a582611eb0565b60006125af612583565b905060008151116125cf57604051806020016040528060008152506125fa565b806125d98461285a565b6040516020016125ea929190613d36565b6040516020818303038152906040525b915050919050565b60008073ffffffffffffffffffffffffffffffffffffffff166003600084815260200190815260200160002060009054906101000a900473ffffffffffffffffffffffffffffffffffffffff1673ffffffffffffffffffffffffffffffffffffffff1614159050919050565b505050565b505050565b61268283836129ba565b61268f60008484846126d3565b6126ce576040517f08c379a00000000000000000000000000000000000000000000000000000000081526004016126c59061405a565b60405180910390fd5b505050565b60006126f48473ffffffffffffffffffffffffffffffffffffffff16612b93565b1561284d578373ffffffffffffffffffffffffffffffffffffffff1663150b7a0261271d611efb565b8786866040518563ffffffff1660e01b815260040161273f94939291906140cf565b6020604051808303816000875af192505050801561277b57506040513d601f19601f820116820180604052508101906127789190614130565b60015b6127fd573d80600081146127ab576040519150601f19603f3d011682016040523d82523d6000602084013e6127b0565b606091505b5060008151036127f5576040517f08c379a00000000000000000000000000000000000000000000000000000000081526004016127ec9061405a565b60405180910390fd5b805181602001fd5b63150b7a0260e01b7bffffffffffffffffffffffffffffffffffffffffffffffffffffffff1916817bffffffffffffffffffffffffffffffffffffffffffffffffffffffff191614915050612852565b600190505b949350505050565b6060600082036128a1576040518060400160405280600181526020017f300000000000000000000000000000000000000000000000000000000000000081525090506129b5565b600082905060005b600082146128d35780806128bc906135f2565b915050600a826128cc919061418c565b91506128a9565b60008167ffffffffffffffff8111156128ef576128ee6131e9565b5b6040519080825280601f01601f1916602001820160405280156129215781602001600182028036833780820191505090505b5090505b600085146129ae5760018261293a9190613cc6565b9150600a8561294991906141bd565b6030612955919061359c565b60f81b81838151811061296b5761296a61363a565b5b60200101907effffffffffffffffffffffffffffffffffffffffffffffffffffffffffffff1916908160001a905350600a856129a7919061418c565b9450612925565b8093505050505b919050565b600073ffffffffffffffffffffffffffffffffffffffff168273ffffffffffffffffffffffffffffffffffffffff1603612a29576040517f08c379a0000000000000000000000000000000000000000000000000000000008152600401612a209061423a565b60405180910390fd5b612a3281612602565b15612a72576040517f08c379a0000000000000000000000000000000000000000000000000000000008152600401612a69906142a6565b60405180910390fd5b612a7e6000838361266e565b6001600460008473ffffffffffffffffffffffffffffffffffffffff1673ffffffffffffffffffffffffffffffffffffffff1681526020019081526020016000206000828254612ace919061359c565b92505081905550816003600083815260200190815260200160002060006101000a81548173ffffffffffffffffffffffffffffffffffffffff021916908373ffffffffffffffffffffffffffffffffffffffff160217905550808273ffffffffffffffffffffffffffffffffffffffff16600073ffffffffffffffffffffffffffffffffffffffff167fddf252ad1be2c89b69c2b068fc378daa952ba7f163c4a11628f55a4df523b3ef60405160405180910390a4612b8f60008383612673565b5050565b6000808273ffffffffffffffffffffffffffffffffffffffff163b119050919050565b6040518060c00160405280600073ffffffffffffffffffffffffffffffffffffffff16815260200160008152602001600073ffffffffffffffffffffffffffffffffffffffff168152602001600073ffffffffffffffffffffffffffffffffffffffff168152602001600081526020016000151581525090565b828054612c3c90613698565b90600052602060002090601f016020900481019282612c5e5760008555612ca5565b82601f10612c7757805160ff1916838001178555612ca5565b82800160010185558215612ca5579182015b82811115612ca4578251825591602001919060010190612c89565b5b509050612cb29190612cb6565b5090565b5b80821115612ccf576000816000905550600101612cb7565b5090565b6000604051905090565b600080fd5b600080fd5b60007fffffffff0000000000000000000000000000000000000000000000000000000082169050919050565b612d1c81612ce7565b8114612d2757600080fd5b50565b600081359050612d3981612d13565b92915050565b600060208284031215612d5557612d54612cdd565b5b6000612d6384828501612d2a565b91505092915050565b60008115159050919050565b612d8181612d6c565b82525050565b6000602082019050612d9c6000830184612d78565b92915050565b600081519050919050565b600082825260208201905092915050565b6000819050602082019050919050565b600073ffffffffffffffffffffffffffffffffffffffff82169050919050565b6000612df982612dce565b9050919050565b612e0981612dee565b82525050565b6000819050919050565b612e2281612e0f565b82525050565b6000612e3382612dce565b9050919050565b612e4381612e28565b82525050565b612e5281612d6c565b82525050565b60c082016000820151612e6e6000850182612e00565b506020820151612e816020850182612e19565b506040820151612e946040850182612e3a565b506060820151612ea76060850182612e3a565b506080820151612eba6080850182612e19565b5060a0820151612ecd60a0850182612e49565b50505050565b6000612edf8383612e58565b60c08301905092915050565b6000602082019050919050565b6000612f0382612da2565b612f0d8185612dad565b9350612f1883612dbe565b8060005b83811015612f49578151612f308882612ed3565b9750612f3b83612eeb565b925050600181019050612f1c565b5085935050505092915050565b60006020820190508181036000830152612f708184612ef8565b905092915050565b600081519050919050565b600082825260208201905092915050565b60005b83811015612fb2578082015181840152602081019050612f97565b83811115612fc1576000848401525b50505050565b6000601f19601f8301169050919050565b6000612fe382612f78565b612fed8185612f83565b9350612ffd818560208601612f94565b61300681612fc7565b840191505092915050565b6000602082019050818103600083015261302b8184612fd8565b905092915050565b61303c81612e0f565b811461304757600080fd5b50565b60008135905061305981613033565b92915050565b60006020828403121561307557613074612cdd565b5b60006130838482850161304a565b91505092915050565b61309581612dee565b82525050565b60006020820190506130b0600083018461308c565b92915050565b6130bf81612dee565b81146130ca57600080fd5b50565b6000813590506130dc816130b6565b92915050565b600080604083850312156130f9576130f8612cdd565b5b6000613107858286016130cd565b92505060206131188582860161304a565b9150509250929050565b6000806040838503121561313957613138612cdd565b5b60006131478582860161304a565b92505060206131588582860161304a565b9150509250929050565b60008060006060848603121561317b5761317a612cdd565b5b6000613189868287016130cd565b935050602061319a868287016130cd565b92505060406131ab8682870161304a565b9150509250925092565b6131be81612e0f565b82525050565b60006020820190506131d960008301846131b5565b92915050565b600080fd5b600080fd5b7f4e487b7100000000000000000000000000000000000000000000000000000000600052604160045260246000fd5b61322182612fc7565b810181811067ffffffffffffffff821117156132405761323f6131e9565b5b80604052505050565b6000613253612cd3565b905061325f8282613218565b919050565b600067ffffffffffffffff82111561327f5761327e6131e9565b5b61328882612fc7565b9050602081019050919050565b82818337600083830152505050565b60006132b76132b284613264565b613249565b9050828152602081018484840111156132d3576132d26131e4565b5b6132de848285613295565b509392505050565b600082601f8301126132fb576132fa6131df565b5b813561330b8482602086016132a4565b91505092915050565b6000806040838503121561332b5761332a612cdd565b5b600083013567ffffffffffffffff81111561334957613348612ce2565b5b613355858286016132e6565b92505060206133668582860161304a565b9150509250929050565b60006020828403121561338657613385612cdd565b5b6000613394848285016130cd565b91505092915050565b6133a681612d6c565b81146133b157600080fd5b50565b6000813590506133c38161339d565b92915050565b600080604083850312156133e0576133df612cdd565b5b60006133ee858286016130cd565b92505060206133ff858286016133b4565b9150509250929050565b600067ffffffffffffffff821115613424576134236131e9565b5b61342d82612fc7565b9050602081019050919050565b600061344d61344884613409565b613249565b905082815260208101848484011115613469576134686131e4565b5b613474848285613295565b509392505050565b600082601f830112613491576134906131df565b5b81356134a184826020860161343a565b91505092915050565b600080600080608085870312156134c4576134c3612cdd565b5b60006134d2878288016130cd565b94505060206134e3878288016130cd565b93505060406134f48782880161304a565b925050606085013567ffffffffffffffff81111561351557613514612ce2565b5b6135218782880161347c565b91505092959194509250565b6000806040838503121561354457613543612cdd565b5b6000613552858286016130cd565b9250506020613563858286016130cd565b9150509250929050565b7f4e487b7100000000000000000000000000000000000000000000000000000000600052601160045260246000fd5b60006135a782612e0f565b91506135b283612e0f565b9250827fffffffffffffffffffffffffffffffffffffffffffffffffffffffffffffffff038211156135e7576135e661356d565b5b828201905092915050565b60006135fd82612e0f565b91507fffffffffffffffffffffffffffffffffffffffffffffffffffffffffffffffff820361362f5761362e61356d565b5b600182019050919050565b7f4e487b7100000000000000000000000000000000000000000000000000000000600052603260045260246000fd5b7f4e487b7100000000000000000000000000000000000000000000000000000000600052602260045260246000fd5b600060028204905060018216806136b057607f821691505b6020821081036136c3576136c2613669565b5b50919050565b7f4552433732313a20617070726f76616c20746f2063757272656e74206f776e6560008201527f7200000000000000000000000000000000000000000000000000000000000000602082015250565b6000613725602183612f83565b9150613730826136c9565b604082019050919050565b6000602082019050818103600083015261375481613718565b9050919050565b7f4552433732313a20617070726f76652063616c6c6572206973206e6f7420746f60008201527f6b656e206f776e6572206e6f7220617070726f76656420666f7220616c6c0000602082015250565b60006137b7603e83612f83565b91506137c28261375b565b604082019050919050565b600060208201905081810360008301526137e6816137aa565b9050919050565b7f5265656e7472616e637947756172643a207265656e7472616e742063616c6c00600082015250565b6000613823601f83612f83565b915061382e826137ed565b602082019050919050565b6000602082019050818103600083015261385281613816565b9050919050565b7f5072696365206d757374206265206174206c6561737420312077656900000000600082015250565b600061388f601c83612f83565b915061389a82613859565b602082019050919050565b600060208201905081810360008301526138be81613882565b9050919050565b7f4e6f7420656e6f75676820657468657220666f72206c697374696e6720666565600082015250565b60006138fb602083612f83565b9150613906826138c5565b602082019050919050565b6000602082019050818103600083015261392a816138ee565b9050919050565b6000606082019050613946600083018661308c565b613953602083018561308c565b61396060408301846131b5565b949350505050565b600060a08201905061397d600083018861308c565b61398a60208301876131b5565b613997604083018661308c565b6139a4606083018561308c565b6139b160808301846131b5565b9695505050505050565b7f4552433732313a2063616c6c6572206973206e6f7420746f6b656e206f776e6560008201527f72206e6f7220617070726f766564000000000000000000000000000000000000602082015250565b6000613a17602e83612f83565b9150613a22826139bb565b604082019050919050565b60006020820190508181036000830152613a4681613a0a565b9050919050565b7f4e6f7420656e6f75676820657468657220746f20636f7665722061736b696e6760008201527f2070726963650000000000000000000000000000000000000000000000000000602082015250565b6000613aa9602683612f83565b9150613ab482613a4d565b604082019050919050565b60006020820190508181036000830152613ad881613a9c565b9050919050565b6000819050919050565b6000613b04613aff613afa84612dce565b613adf565b612dce565b9050919050565b6000613b1682613ae9565b9050919050565b6000613b2882613b0b565b9050919050565b613b3881613b1d565b82525050565b6000606082019050613b53600083018661308c565b613b606020830185613b2f565b613b6d60408301846131b5565b949350505050565b600060a082019050613b8a600083018861308c565b613b9760208301876131b5565b613ba46040830186613b2f565b613bb16060830185613b2f565b613bbe60808301846131b5565b9695505050505050565b7f4552433732313a20696e76616c696420746f6b656e2049440000000000000000600082015250565b6000613bfe601883612f83565b9150613c0982613bc8565b602082019050919050565b60006020820190508181036000830152613c2d81613bf1565b9050919050565b7f4552433732313a2061646472657373207a65726f206973206e6f74206120766160008201527f6c6964206f776e65720000000000000000000000000000000000000000000000602082015250565b6000613c90602983612f83565b9150613c9b82613c34565b604082019050919050565b60006020820190508181036000830152613cbf81613c83565b9050919050565b6000613cd182612e0f565b9150613cdc83612e0f565b925082821015613cef57613cee61356d565b5b828203905092915050565b600081905092915050565b6000613d1082612f78565b613d1a8185613cfa565b9350613d2a818560208601612f94565b80840191505092915050565b6000613d428285613d05565b9150613d4e8284613d05565b91508190509392505050565b7f436f756e7465723a2064656372656d656e74206f766572666c6f770000000000600082015250565b6000613d90601b83612f83565b9150613d9b82613d5a565b602082019050919050565b60006020820190508181036000830152613dbf81613d83565b9050919050565b7f4552433732313a207472616e736665722066726f6d20696e636f72726563742060008201527f6f776e6572000000000000000000000000000000000000000000000000000000602082015250565b6000613e22602583612f83565b9150613e2d82613dc6565b604082019050919050565b60006020820190508181036000830152613e5181613e15565b9050919050565b7f4552433732313a207472616e7366657220746f20746865207a65726f2061646460008201527f7265737300000000000000000000000000000000000000000000000000000000602082015250565b6000613eb4602483612f83565b9150613ebf82613e58565b604082019050919050565b60006020820190508181036000830152613ee381613ea7565b9050919050565b7f45524337323155524953746f726167653a2055524920736574206f66206e6f6e60008201527f6578697374656e7420746f6b656e000000000000000000000000000000000000602082015250565b6000613f46602e83612f83565b9150613f5182613eea565b604082019050919050565b60006020820190508181036000830152613f7581613f39565b9050919050565b7f4552433732313a20617070726f766520746f2063616c6c657200000000000000600082015250565b6000613fb2601983612f83565b9150613fbd82613f7c565b602082019050919050565b60006020820190508181036000830152613fe181613fa5565b9050919050565b7f4552433732313a207472616e7366657220746f206e6f6e20455243373231526560008201527f63656976657220696d706c656d656e7465720000000000000000000000000000602082015250565b6000614044603283612f83565b915061404f82613fe8565b604082019050919050565b6000602082019050818103600083015261407381614037565b9050919050565b600081519050919050565b600082825260208201905092915050565b60006140a18261407a565b6140ab8185614085565b93506140bb818560208601612f94565b6140c481612fc7565b840191505092915050565b60006080820190506140e4600083018761308c565b6140f1602083018661308c565b6140fe60408301856131b5565b81810360608301526141108184614096565b905095945050505050565b60008151905061412a81612d13565b92915050565b60006020828403121561414657614145612cdd565b5b60006141548482850161411b565b91505092915050565b7f4e487b7100000000000000000000000000000000000000000000000000000000600052601260045260246000fd5b600061419782612e0f565b91506141a283612e0f565b9250826141b2576141b161415d565b5b828204905092915050565b60006141c882612e0f565b91506141d383612e0f565b9250826141e3576141e261415d565b5b828206905092915050565b7f4552433732313a206d696e7420746f20746865207a65726f2061646472657373600082015250565b6000614224602083612f83565b915061422f826141ee565b602082019050919050565b6000602082019050818103600083015261425381614217565b9050919050565b7f4552433732313a20746f6b656e20616c7265616479206d696e74656400000000600082015250565b6000614290601c83612f83565b915061429b8261425a565b602082019050919050565b600060208201905081810360008301526142bf81614283565b905091905056fea26469706673582212208229cc77dd334ca8f3f49c79d76e75efb1608f45d3df7cbd09911abd585af31964736f6c634300080d0033",
  "immutableReferences": {},
  "source": "// SPDX-License-Identifier: MIT\r\npragma solidity ^0.8.13;\r\n\r\nimport \"@openzeppelin/contracts/utils/Counters.sol\";\r\nimport \"@openzeppelin/contracts/token/ERC721/ERC721.sol\";\r\nimport \"@openzeppelin/contracts/security/ReentrancyGuard.sol\";\r\nimport \"@openzeppelin/contracts/token/ERC721/extensions/ERC721URIStorage.sol\";\r\n\r\ncontract Marketplace is ReentrancyGuard,ERC721URIStorage {\r\n  using Counters for Counters.Counter;\r\n  Counters.Counter private _nftsSold;\r\n  Counters.Counter private _nftCount;\r\n  Counters.Counter private _tokenIds;\r\n\r\n  uint256 public LISTING_FEE = 0.0001 ether;\r\n  address payable private _marketOwner;\r\n  mapping(uint256 => NFT) private _idToNFT;\r\n  event NFTMinted(uint256);\r\n\r\n  struct NFT {\r\n    address nftContract;\r\n    uint256 tokenId;\r\n    address payable seller;\r\n    address payable owner;\r\n    uint256 price;\r\n    bool listed;\r\n  }\r\n  event NFTListed(\r\n    address nftContract,\r\n    uint256 tokenId,\r\n    address seller,\r\n    address owner,\r\n    uint256 price\r\n  );\r\n  event NFTSold(\r\n    address nftContract,\r\n    uint256 tokenId,\r\n    address seller,\r\n    address owner,\r\n    uint256 price\r\n  );\r\n\r\n  constructor() ERC721(\"Hex NFT Marketplace\", \"HNM\") {\r\n    _marketOwner = payable(msg.sender);\r\n  }\r\n\r\n  // Mint + List the NFT on the marketplace\r\n  function listNft(string memory _tokenURI, uint256 _price) public payable nonReentrant {\r\n    require(_price > 0, \"Price must be at least 1 wei\");\r\n    require(msg.value == LISTING_FEE, \"Not enough ether for listing fee\");\r\n\r\n    _tokenIds.increment();\r\n    uint256 tokenId = _tokenIds.current();\r\n    _safeMint(msg.sender, tokenId);\r\n    _setTokenURI(tokenId, _tokenURI);\r\n    setApprovalForAll(address(this), true);\r\n\r\n    IERC721(address(this)).transferFrom(msg.sender, address(this), tokenId);\r\n\r\n    _nftCount.increment();\r\n\r\n    _idToNFT[tokenId] = NFT(\r\n      address(this),\r\n      tokenId, \r\n      payable(msg.sender),\r\n      payable(address(this)),\r\n      _price,\r\n      true\r\n    );\r\n\r\n    emit NFTListed(address(this), tokenId, msg.sender, address(this), _price);\r\n  }\r\n\r\n  // Buy an NFT\r\n  function buyNft(uint256 _tokenId) public payable nonReentrant {\r\n    NFT storage nft = _idToNFT[_tokenId];\r\n    require(msg.value >= nft.price, \"Not enough ether to cover asking price\");\r\n\r\n    address payable buyer = payable(msg.sender);\r\n    payable(nft.seller).transfer(msg.value);\r\n    IERC721(address(this)).transferFrom(address(this), buyer, nft.tokenId);\r\n    _marketOwner.transfer(LISTING_FEE);\r\n    nft.owner = buyer;\r\n    nft.listed = false;\r\n\r\n    _nftsSold.increment();\r\n    emit NFTSold(address(this), nft.tokenId, nft.seller, buyer, msg.value);\r\n  }\r\n\r\n  // Resell an NFT purchased from the marketplace\r\n  function resellNft(uint256 _tokenId, uint256 _price) public payable nonReentrant {\r\n    require(_price > 0, \"Price must be at least 1 wei\");\r\n    require(msg.value == LISTING_FEE, \"Not enough ether for listing fee\");\r\n\r\n    IERC721(address(this)).transferFrom(msg.sender, address(this), _tokenId);\r\n\r\n    NFT storage nft = _idToNFT[_tokenId];\r\n    nft.seller = payable(msg.sender);\r\n    nft.owner = payable(address(this));\r\n    nft.listed = true;\r\n    nft.price = _price;\r\n\r\n    _nftsSold.decrement();\r\n    emit NFTListed(address(this), _tokenId, msg.sender, address(this), _price);\r\n  }\r\n\r\n  function getListingFee() public view returns (uint256) {\r\n    return LISTING_FEE;\r\n  }\r\n\r\n  function getListedNfts() public view returns (NFT[] memory) {\r\n    uint256 nftCount = _nftCount.current();\r\n    uint256 unsoldNftsCount = nftCount - _nftsSold.current();\r\n\r\n    NFT[] memory nfts = new NFT[](unsoldNftsCount);\r\n    uint nftsIndex = 0;\r\n    for (uint i = 0; i < nftCount; i++) {\r\n      if (_idToNFT[i + 1].listed) {\r\n        nfts[nftsIndex] = _idToNFT[i + 1];\r\n        nftsIndex++;\r\n      }\r\n    }\r\n    return nfts;\r\n  }\r\n\r\n  function getMyNfts() public view returns (NFT[] memory) {\r\n    uint nftCount = _nftCount.current();\r\n    uint myNftCount = 0;\r\n    for (uint i = 0; i < nftCount; i++) {\r\n      if (_idToNFT[i + 1].owner == msg.sender) {\r\n        myNftCount++;\r\n      }\r\n    }\r\n\r\n    NFT[] memory nfts = new NFT[](myNftCount);\r\n    uint nftsIndex = 0;\r\n    for (uint i = 0; i < nftCount; i++) {\r\n      if (_idToNFT[i + 1].owner == msg.sender) {\r\n        nfts[nftsIndex] = _idToNFT[i + 1];\r\n        nftsIndex++;\r\n      }\r\n    }\r\n    return nfts;\r\n  }\r\n\r\n  function getMyListedNfts() public view returns (NFT[] memory) {\r\n    uint nftCount = _nftCount.current();\r\n    uint myListedNftCount = 0;\r\n    for (uint i = 0; i < nftCount; i++) {\r\n      if (_idToNFT[i + 1].seller == msg.sender && _idToNFT[i + 1].listed) {\r\n        myListedNftCount++;\r\n      }\r\n    }\r\n\r\n    NFT[] memory nfts = new NFT[](myListedNftCount);\r\n    uint nftsIndex = 0;\r\n    for (uint i = 0; i < nftCount; i++) {\r\n      if (_idToNFT[i + 1].seller == msg.sender && _idToNFT[i + 1].listed) {\r\n        nfts[nftsIndex] = _idToNFT[i + 1];\r\n        nftsIndex++;\r\n      }\r\n    }\r\n    return nfts;\r\n  }\r\n}\r\n",
  "sourcePath": "C:\\Users\\mayank.choudhary\\Desktop\\New folder\\hex\\contracts\\ethereum\\Marketplace.sol",
  "compiler": {
    "name": "solc",
    "version": "0.8.13+commit.abaa5c0e.Emscripten.clang"
  },
  "schemaVersion": "3.4.10",
  "updatedAt": "2023-01-24T18:18:05.275Z",
  "networkType": "ethereum",
  "devdoc": {
    "kind": "dev",
    "methods": {
      "approve(address,uint256)": {
        "details": "See {IERC721-approve}."
      },
      "balanceOf(address)": {
        "details": "See {IERC721-balanceOf}."
      },
      "getApproved(uint256)": {
        "details": "See {IERC721-getApproved}."
      },
      "isApprovedForAll(address,address)": {
        "details": "See {IERC721-isApprovedForAll}."
      },
      "name()": {
        "details": "See {IERC721Metadata-name}."
      },
      "ownerOf(uint256)": {
        "details": "See {IERC721-ownerOf}."
      },
      "safeTransferFrom(address,address,uint256)": {
        "details": "See {IERC721-safeTransferFrom}."
      },
      "safeTransferFrom(address,address,uint256,bytes)": {
        "details": "See {IERC721-safeTransferFrom}."
      },
      "setApprovalForAll(address,bool)": {
        "details": "See {IERC721-setApprovalForAll}."
      },
      "supportsInterface(bytes4)": {
        "details": "See {IERC165-supportsInterface}."
      },
      "symbol()": {
        "details": "See {IERC721Metadata-symbol}."
      },
      "tokenURI(uint256)": {
        "details": "See {IERC721Metadata-tokenURI}."
      },
      "transferFrom(address,address,uint256)": {
        "details": "See {IERC721-transferFrom}."
      }
    },
    "version": 1
  },
  "userdoc": {
    "kind": "user",
    "methods": {},
    "version": 1
  }
}